:020000040800F2
:100000003805002001010008FB200008251F00081A
:10001000F9200008590C000809270008000000001A
:100020000000000000000000000000001F21000888
:100030005B0C0008000000001D21000821210008C1
:100040001B0100081B0100081B0100081B01000820
:100050001B0100081B0100081B0100081B01000810
:10006000730C00081B010008790C00081B01000834
:100070001B0100081B0100081B0100081B010008F0
:100080001B0100081B0100081B0100081B010008E0
:100090001B0100081B0100081B0100087F0C000861
:1000A0001B0100081B0100081B0100081B010008C0
:1000B000B9210008C52100081B0100081B01000828
:1000C0001B0100081B0100081B0100081B010008A0
:1000D0001B010008FD2600081B0100081B01000889
:1000E0005D0C00081B0100081B010008DFF80CD0A4
:1000F00000F0AAFB004800476930000838050020DE
:100100000648804706480047FEE7FEE7FEE7FEE7B1
:10011000FEE7FEE7FEE7FEE7FEE7FEE771210008E7
:10012000ED000008202A04DB203A21FA02F0002129
:10013000704721FA02F3D040C2F1200291400843F7
:1001400019467047D2B201E000F8012B491EFBD2DC
:1001500070470022F6E710B513460A4604461946D2
:10016000FFF7F0FF204610BD70B50F4D00B92868AD
:10017000002412E00A4602E09E4203D0521C13788B
:10018000002BF9D1DAB2224305D02BB124B10021E2
:1001900000F8011B04E00446401C0678002EE9D15B
:1001A0002860204670BD00004C0000202DE9FE4F65
:1001B000804681EA0300C00F0C46009021F0004108
:1001C00023F00045B8EB0200A94105D24046214684
:1001D00090461C460B46024623F00040104347D091
:1001E000270DC7F30A00C3F30A510290401A019089
:1001F00040286BDAC3F3130040F4801B009892464A
:1002000020B10023D2EB030A63EB0B0B0198594694
:10021000C0F14002504600F0FCF906460D4650463B
:100220005946019A00F004FA10EB080061410024DD
:1002300087EA115284EAE7731A4340D0009A62B306
:10024000019A012A4FEA075215DC001B61EB0201FB
:100250004FF0004202EA0752CDE90042001C41F58E
:10026000801132462B4600F089FA03B0BDE8F08FCA
:1002700040462146F9E7001B61EB0201001C41F5F5
:10028000801300185B412018A2F5001747EB03010B
:1002900040EAD570B6196D4111E06D084FEA360697
:1002A00045EAC0754FEA0752001B61EB0201001CD2
:1002B00041F5801149084FEA30000019514132469A
:1002C0002B4603B0BDE8F04F00F049BA0098012278
:1002D00040000023D0EB020263EBE073009821465C
:1002E0004FEAE074B8EB000061EB0401E9E783F04A
:1002F00000435BE781F0004158E72DE9FE4F81EABA
:10030000030404F0004421F0004100944FF0000B7E
:1003100023F0004350EA01045ED052EA03045BD0AC
:10032000C3F30A54C1F30A552C44A4F2F3340194E4
:10033000A0FB0254C1F3130141F48011C3F3130372
:1003400043F4801301FB024400FB034E840A970A26
:1003500044EA815447EA8357A4FB076802958D0A53
:1003600005FB07854FEA932C04FB0C542705029DDF
:100370004FEA065847EA1637B5EB08056EEB070C4F
:10038000870E920E47EA811742EA8312A7FB020109
:10039000B6EB0B0164EB00042B0D43EA0C335E1843
:1003A00044EB1C50DA465146E7FB0201C5F3130447
:1003B0004FEA0B3343EA14534FEA0432019C43EAF9
:1003C0000603A4F10C040294009CCDE900B400F0F3
:1003D000D5F903B0BDE8F08F00200146F9E72DE91B
:1003E000F04D81EA030404F0004B21F0004514466F
:1003F0004FF0000A23F0004150EA050220D054EAF1
:1004000001021DD0C5F30A570246C5F31303C1F319
:100410001300C1F30A5640F4801543F48013A7EB90
:100420000608101BD64608F2FD3873EB050002D310
:1004300008F1010801E092185B41B8F1000F03DAFE
:1004400000200146BDE8F08D00204FF480110646E3
:1004500084460EE0171B73EB050705D3121B63EBF5
:10046000050306434CEA010C49084FEA3000921894
:100470005B4150EA0107EDD152EA030012D082EA53
:10048000040083EA0501084305D0101BAB4106D2E6
:100490000122002306E000224FF0004302E06FF04B
:1004A000010253101AEB06004CEB085110EB0A0046
:1004B00041EB0B01BDE8F04D00F051B90EB5C10F95
:1004C00080EAE0700844CA07002140F233438DE817
:1004D0000E000A460B4600F051F903B000BD70B59E
:1004E000C1F30A5201F000450024C1F3130140F2A8
:1004F000FF3341F480119A4201DA002070BD40F2CE
:1005000033439A42A2F2334203DC5242FFF70AFE1F
:1005100000E090402C43F1D0404270BD30B5041E45
:1005200071F1000404DB4FF00044404264EB010130
:10053000141E73F1000405DB1C464FF000435242C9
:1005400063EB0403994208BF904230BD01F00043C1
:1005500030B421F0004150EA010206D00A0DA2F5A4
:100560006072C1F31301002A02DC30BC0020704726
:10057000440F44EAC104C100E01830BC00EBC25093
:1005800000F0B6B830B50B46014600202022012409
:1005900009E021FA02F59D4205D303FA02F5491B51
:1005A00004FA02F52844151EA2F10102F1DC30BD67
:1005B0002DE9F05F0546002092469B468846064698
:1005C000814640241BE02846414647462246FFF725
:1005D000A9FD53465A46C01A914110D311461846F8
:1005E000224600F016F82D1A67EB01084F46224606
:1005F0000120002100F00DF817EB00094E41201EEC
:10060000A4F10104DFDC484631462A464346BDE8F2
:10061000F09F202A04DB203A00FA02F10020704704
:100620009140C2F1200320FA03F319439040704730
:10063000202A06DBCB17203A41FA02F043EAE073A6
:1006400006E041FA02F3D040C2F120029140084393
:10065000194670470FB4002300B589B00CA900916A
:100660000B996FF00042CB601E4B06931E4B079315
:100670000423CDE901321D4A089202466B46002050
:1006800000F08EF909B05DF814FB70B586B006462F
:100690004FF0FF300091CDE90101002015460C46D6
:1006A00004903246694604A8FFF7D4FF0246049836
:1006B000211825B108B1084600E0204628600498BA
:1006C00000280DD0002A02DD0098884208D0081BBF
:1006D0000094CDE901043246694604A8FFF7BAFF49
:1006E00006B070BDD90B0008F70B00086D080008B4
:1006F0000029A8BF7047401C490008BF20F0010036
:10070000704710B4B0FA80FC00FA0CF050EA010413
:1007100004BF10BC704749B1CCF1200421FA04F4A5
:1007200011FA0CF118BF012121430843A3EB0C017E
:10073000CB1D4FEA00614FEA102042BF002010BCE1
:10074000704700EBC35010440029A4BF10BC704791
:10075000401C490008BF20F0010010BC704710B5D4
:10076000141E73F1000408DA401C41F100019218D4
:100770005B411A4301D120F0010010BD2DE9F04D7D
:1007800092469B4611B1B1FA81F202E0B0FA80F2D2
:1007900020329046FFF73DFF04460F4640EA0A002C
:1007A00041EA0B0153465A46084313D0114653EA17
:1007B000010019D0C8F140025046FFF7B3FC0546CE
:1007C0000E46504659464246FFF723FF084305D0E0
:1007D000012004E020463946BDE8F08D00200543A5
:1007E00046EAE0762C4337430A986305E40AA0EB17
:1007F00008000022FD0A44EA47540A3002D50020CE
:100800000146E9E7010510196941DDE908450019CC
:100810006941BDE8F04DA2E7C1F30A52C1F31301EB
:1008200040F2FF3341F480119A4202DA002001467F
:10083000704740F233439A42A2F2334202DC524202
:10084000FFF770BCFFF7E5BE064C074D06E0E06819
:1008500040F0010394E8070098471034AC42F6D307
:10086000FFF748FCA4320008C4320008C0B24FF4BD
:10087000F05100F0D1B900002DE9FF4F087883B0A6
:100880009946FF2805D0491C2D2804D000240020BB
:1008900008E000200BE00124F9E700EB800003EB07
:1008A0004000491C0B78FF2BF7D104B140420023D4
:1008B0000293147819461D462D2C01D02B2C04D1FF
:1008C000521C2D2C13D000240294AA461478FF2C1D
:1008D0000FD00A25A3FB057801FB05814FF0000C22
:1008E00003FB0C11521CE3194AEB0101EEE7012452
:1008F000EAE7814453EA010002D019F5C87F06DA1D
:1009000003980021C0E9001107B0BDE8F08F002571
:10091000AE4E2F46DFF8B882184600F091F9CDE9C7
:100920000001B9F1000002DAC9F1000400E0044658
:100930000023A74A1AEB030B42EB045A12E0E0072C
:1009400007D02A46334638464146FFF7D6FC0746CD
:1009500088462A46334610461946FFF7CEFC054620
:100960000E466410002CEAD1DDE90001B9F1000F58
:100970005A46534606DAFFF732FD3A464346FFF73A
:100980002EFD05E0FFF7B9FC3A464346FFF7B5FCFC
:10099000029A0AB181F00041039AC2E90001B3E76B
:1009A0002DE9FF4F1F468DB0D7E901464FF0FF38C4
:1009B0002E2045464FF000090B90B9696D1C0E982A
:1009C0008847396A824688470028F6D1BAF1FF3F46
:1009D0000AD024F4D064002E11DDBAF12B0F08D018
:1009E000BAF12D0F0BD102E0404611B08DE744F46F
:1009F0008064B9696D1C0E9888478246761E6946E8
:100A0000600501D52D2000E02B208DF8000001F1BC
:100A1000010B0DF1200809E0B9696D1C0E9888479B
:100A200082460F9844F40074761E0560002E02DDA5
:100A3000BAF1300FF0D00B998A453ED144F08004D2
:100A400006E00F99681CA9F1010944F400740860DC
:100A5000B9696D1C761E0E98884782463028F0D002
:100A60002BE00B998A4505D1200603D444F080047D
:100A7000761E18E0504601F037FF08B30DF1130160
:100A8000761E44F400748B4508D2AAF130000BF8AE
:100A9000010B200607D5A9F1010003E0200602D4CE
:100AA00009F101008146A00502D50F99681C086074
:100AB000B9696D1C0E9888478246002ED1DC53E040
:100AC000002E51DDBAF1650F02D0BAF1450F4BD1BE
:100AD000A00549D5B9696D1C24F44074761E0E98A2
:100AE00088478246002E0CDD2B2804D0BAF12D0F4A
:100AF00007D144F48074B9696D1C0E98884782460A
:100B0000761EE00501D52D2100E02B2108F8011B00
:100B1000CDF82C8021E00DF12901761E44F40074FB
:100B200088450CD2AAF1300010F0FF0088F80000D0
:100B300002D10B99884509D908F1010806E0E005C2
:100B400001D5244801E042F20F708146B9696D1C5D
:100B50000E98884782460F980560002E04DD5046A7
:100B600001F0C2FE0028D6D1F9690E988847FF200F
:100B70008BF8000088F800000020069007904B4694
:100B80006A4608A906A8FFF777FEA00502D46FF011
:100B900001002AE714F0240F0AD0E00714D1DDE9A0
:100BA00006123868031D3B600068C0E900120BE0C4
:100BB000DDE90601FFF7CAFC0146E00704D1386809
:100BC000021D3A600068016028460EE700001440EC
:100BD0000000F03FF1D8FFFF426842B1016811F810
:100BE000013B23B1521EC0E9001218467047012193
:100BF000C160881E704742685AB1C368016843B932
:100C000083688B4205D0491E521CC0E900120020A7
:100C100070474FF0FF3070477F2801D9002208E06D
:100C2000064A02EB5002C007127800D1120902F006
:100C30000F02012090400840704700006432000815
:100C40000EB540F2334202920022CDE90022134653
:100C5000FFF794FD03B000BDFEE7704710B54FF4F9
:100C6000006000F087F8BDE810404FF4805000F0BD
:100C700081B8042000F07EB8102000F07BB840203E
:100C800000F078B810B590F821100024022903D0A4
:100C90000421816301243DE001680A6822F00E020C
:100CA0000A6001680A6822F001020A601A4A0168B3
:100CB000914201D1012121E0174A1432914201D120
:100CC00010211BE0144A2832914201D1891515E008
:100CD000114A3C32914201D189140FE00E4A503240
:100CE000914202D14FF4803108E00B4A64329142C4
:100CF00002D14FF4801101E04FF08071064A083AAA
:100D00005160012180F82110002180F82010416BF2
:100D100001B18847204610BD0800024012494A89A7
:100D2000521C92B210281AD0402818D00A461289B4
:100D3000521C92B2B0F5006F13D0B0F5805F10D0A6
:100D400004280DD1BFF34F8F08480168084A01F409
:100D5000E06111430160BFF34F8F00BFFDE74A819F
:100D600070470A8170470000000000200CED00E091
:100D70000400FA05044910B50A68024202D008606E
:100D8000FFF7CCFF10BD0000140401402DE9F84F1F
:100D9000DFF890A100220AF1040B144601274FF05E
:100DA0000F090BF1040E00BF0B6807FA04F52B4086
:100DB000AB4274D1DFF870C14E68A6EB0C086645F3
:100DC0002BD00DDC032E34D005DC36B3012E19D028
:100DD000022E2FD11BE0112E16D0122E2AD119E08F
:100DE000B8F5881F19D006DCB8F5803F15D0B8F5E6
:100DF000801F1FD111E0B8F5001F0ED0B8F5041FF9
:100E000018D10AE0CA6815E0CA68121D12E0CA6863
:100E100008320FE0CA680C320CE08A682AB1012A55
:100E20004FF0080203D0456104E0042202E00561AE
:100E300000E00022FF2B01D8064601E000F1040685
:100E40004FEA840501D9A5F12005D6F800C009FABA
:100E500005F82CEA080C02FA05F54CEA050CC6F870
:100E600000C04D68ED0057D5304DAE6946F0010623
:100E7000AE61AD6924F0030605F0010500952C4D27
:100E800006EB050CDCF80850A6074FEA167809FABD
:100E900008F6B543274EB04202D1002610E03BE0F1
:100EA000254EB04201D101260AE0244EB04201D1C4
:100EB000022605E0224EB04201D1032600E00426BE
:100EC00006FA08F62E43CCF808604D68DAF80060A0
:100ED000ED03554601D51E4300E09E432E604D684C
:100EE000DBF80060AD035D4601D51E4300E09E4384
:100EF0002E604D68DEF80060ED02754601D51E4398
:100F000000E09E432E604D68AD020E4D2E6801D567
:100F10001E4300E09E432E60641C102CFFF444AF7F
:100F2000BDE8F88F000401400000111000100240DD
:100F30000000014000080140000C01400010014089
:100F4000001401400C0401400AB10161704709041A
:100F5000FBE7000001488068704700003C0000206B
:100F60000248816802781144816070473C0000208B
:100F7000074810B5016841F010010160032000F03E
:100F800073F8002000F006F800F024F8002010BDEF
:100F90000020024070B50D4D04464FF47A71287858
:100FA000B1FBF0F00A490968B1FBF0F000F0FCFA7F
:100FB00048B9102C07D200222146501E00F034F808
:100FC00000206C6070BD012070BD00003C0000205E
:100FD000480000200C4808B5816941F00101816199
:100FE000816901F001010091C16941F08051C16145
:100FF000C06900F0805000900448416821F0E06131
:1010000041F00071416008BD001002400000014045
:1010100000F01F02012191404009800000F1E02012
:10102000C0F8001170470000F0B40E4B1B680C466E
:10103000C3F30223C3F10705042D00D90425191DAC
:10104000072901D2002300E0DB1E012606FA05F184
:10105000491E214099409E40761E16403143F0BC07
:1010600001F04CB80CED00E0064900F007020868FA
:101070004FF6FF03184040EA0220034A104308607D
:10108000704700000CED00E00000FA052DE9F04784
:10109000DFF8548105460E46D8F8000000F007003E
:1010A000B0420CD2D8F8001021F007013143C8F843
:1010B0000010D8F8000000F00700B0426FD1286897
:1010C0004A4C810712D5400703D5606840F4E060C0
:1010D00060602878000703D5606840F46050606065
:1010E0006068A96820F0F000084360602878C007B5
:1010F00044D06868012816D02168022816D08907D4
:1011000000294CDA616821F0030101436160FFF7B7
:1011100021FF6968074641F2883001290ED0022973
:10112000814618D026E021688903E9E78901E7E7CD
:10113000FFF710FFC11B494501D918E081466068DF
:10114000C0F381000128F3D118E000BFFFF702FFD0
:10115000C11B49450BD86068C0F381000228F5D156
:101160000CE000BFFFF7F6FEC11B494502D9032082
:10117000BDE8F087606810F00C0FF3D1D8F80010CC
:10118000404601F00701B1420BD9016821F0070187
:1011900031430160006800F00700B04201D0012037
:1011A000E6E72878400705D56068E96820F4E06044
:1011B000084360602878000706D56068296920F434
:1011C000605040EAC100606000F036F86168084A8B
:1011D000C1F30311515CC840064908600020FFF7C5
:1011E000D9FE0020C4E700000020024000100240A9
:1011F0004C3200084800002004480549006849684E
:10120000044AC1F30221515CC840704748000020E5
:10121000001002405C320008044805490068496833
:10122000044AC1F3C221515CC84070474800002005
:10123000001002405C32000812A185B00FC98DE891
:101240000F0014A0144A006804905168134801F07C
:101250000C03042B10D0082B0ED1C1F38343C90318
:101260001DF803000AD5516804AAC1F34041515C3E
:101270000A4A5043B0FBF1F005B0704708494843B3
:10128000FAE7000002030405060708090A0B0C0D23
:101290000E0F1010010200000010024000127A0030
:1012A00000093D002DE9F84F04460078B94DC0070C
:1012B00048D06868C0F38100012807D06868C0F38F
:1012C0008100022809D16868C00306D52868800318
:1012D00038D5606800286FD034E06068B0F5803F92
:1012E0000BD010B1B0F5A02F11D0286820F48030B9
:1012F0002860286820F4802002E0286840F48030CC
:101300002860606888B1FFF725FE064609E0286876
:1013100040F480202860F0E7FFF71CFE801B642863
:1013200075D828688003F7D50CE0FFF713FE064652
:1013300005E000BFFFF70EFE801B6428F0D8286888
:101340008003F7D42078944E80074FF001094FF0C6
:1013500000083BD5686810F00C0F07D06868C0F330
:101360008100022809D16868C00306D42868800774
:1013700014D5206901281FD110E02069B0B1C6F84A
:101380000090FFF7E7FD074605E000BFFFF7E2FD2D
:10139000C01B0228C4D828688007F7D5286861696F
:1013A00020F0F80040EAC10028600FE0C6F8008095
:1013B000FFF7D0FD074606E0E9E000BFFFF7CAFDF2
:1013C000C01B022823D828688007F7D4207800079C
:1013D0002CD57248A169D9B1C0F80090FFF7BAFDC9
:1013E000074604E0FFF7B6FDC01B02280FD8686A65
:1013F0008007F7D56A484FF4FA510068B0FBF1F066
:10140000009000BF0098411E0091FAD20EE080E0EB
:10141000C0F80080FFF79EFD074604E0FFF79AFD45
:10142000C01B022875D8686A8007F7D42078400767
:1014300060D5E8690027C00008D4E86940F0805012
:10144000E861E869012700F0805000905548016884
:10145000C90513D40168834641F480710160FFF728
:1014600079FD824606E000BFFFF774FDA0EB0A009D
:1014700064284ED8DBF80000C005F5D5E0680128E7
:101480000AD008B1052813D0286A20F0010028628C
:10149000286A20F0040002E0286A40F00100286277
:1014A000E06841F2883B98B1FFF754FD82460BE0BB
:1014B000286A40F004002862EEE700BFFFF74AFD0B
:1014C000A0EB0A0159455AD8286A8007F6D50CE0E6
:1014D000FFF740FD824605E0FFF73CFDA0EB0A0167
:1014E00059454CD8286A8007F6D41FB1E86920F026
:1014F0008050E861E06988B36968C1F3810102291D
:1015000045D00228C6F8608004D0FFF723FD0446CA
:1015100038E034E0FFF71EFD074604E0FFF71AFD50
:10152000C01B02282BD828688001F7D4206AB0F5A8
:10153000803F05D16868A16820F4003008436860E6
:10154000D4E908010843696821F47411084368600C
:10155000C6F86090FFF7FEFC044606E015E000BF09
:10156000FFF7F8FC001B022809D828688001F7D58E
:101570000BE000BFFFF7EEFC001B022802D903209E
:10158000BDE8F88F28688001F4D40020F8E7012036
:10159000F6E7000000100240000042428004424290
:1015A000480000200070004010B5401EB0F1807F60
:1015B00001D3012010BD4FF0E02460610F216017BE
:1015C00000F09CFD0020A06107202061002010BDDC
:1015D0007047704730B590F83C20012A20D0012296
:1015E00080F83C20022380F83D3003685C6824F0DA
:1015F00070045C6003685C680D682C435C60036881
:101600009C6824F080049C6003689C6849680C43D3
:101610009C6080F83D20002180F83C10084630BDD9
:10162000022030BD10B5040003D094F83D0010B185
:1016300007E0012010BD002084F83C00204600F0A7
:101640000DF8022084F83D00211D206800F0C0FD47
:10165000012084F83D00002010BD000008B501689D
:101660001448B1F1804F14D0134A914220D1C1697E
:1016700041F00201C161C069002200F00200009047
:1016800011461D20FFF7D0FC1D20BDE80840FFF7E4
:10169000BFBCC16941F00101C161C069002200F015
:1016A0000100009011461C20FFF7BEFC1C20ECE757
:1016B00008BD000000100240000400400168CA6834
:1016C00042F00102CA600068016841F00101016056
:1016D0000020704770B5044690F83C00012817D0F0
:1016E000012584F83C50022084F83D00206882687F
:1016F00022F0770222F47F4282600868502837D0B7
:101700000DDC202859D005DC88B3102841D151E0E8
:10171000022070BD302853D040283AD13FE06028E5
:101720002ED070280BD0B0F5805F03D0B0F5005FED
:101730002FD110E02068816821F0070115E0CB6807
:10174000D1E90121206800F084FD2168886840F01B
:10175000770088601DE0CB68D1E90121206800F0A6
:1017600078FD2068816841F48041816011E01EE0CD
:10177000CA684968206800F021FE5021206806E010
:10178000CA684968206800F02AFE6021206800F0DD
:101790006AFD84F83D50002084F83C0070BDCA68A2
:1017A0004968206800F00AFE40212068EFE7002128
:1017B0002068ECE710212068E9E720212068E6E7AF
:1017C00030212068E3E7704770B50446006801697E
:1017D0004FF00005C943890715D4C168C94389077B
:1017E00011D4E91E016101202077206880698007FB
:1017F000204602D0FFF7E7FF04E000F0BFF82046E4
:1018000000F041F9257720680169C943490717D4D9
:10181000C168C943490713D46FF004010161022074
:1018200020772068806910F4407F204602D0FFF7BF
:10183000CAFF04E000F0A2F8204600F024F9257762
:1018400020680169C943090716D4C168C94309075B
:1018500012D46FF008010161042020772068C0696C
:101860008007204602D0FFF7AEFF04E000F086F8C4
:10187000204600F008F9257720680169C943C906A8
:1018800017D4C168C943C90613D46FF010010161B0
:10189000082020772068C06910F4407F204602D0DD
:1018A000FFF791FF04E000F069F8204600F0EBF844
:1018B000257720680169C943C90708D1C168C943B0
:1018C000C90704D1891E0161204600F0F5F820689F
:1018D0000169C943090609D4C168C943090605D489
:1018E0006FF0800101612046FFF772FE20680169F8
:1018F000C943490609D4C168C943490605D46FF0F4
:1019000040010161204600F055F920680169C94392
:1019100089060BD4C168C943890607D46FF020013A
:1019200001612046BDE87040FFF753BE70BD000066
:1019300000B585B0002100910191029103910068EA
:101940000B49884211D10B48816941F0080181613E
:101950008069694600F0080004900320009002208E
:10196000019003900448FFF711FA05B000BD000094
:101970000004004000100240000C0140704770B5A8
:10198000044690F83C000D4601280DD0012684F84D
:101990003C60022084F83D0042B1042A18D0082A95
:1019A0002AD00C2A4DD139E0022070BD206800F009
:1019B00063FC2068816941F00801816120688169C8
:1019C00021F004018161206881692A69114311E0D5
:1019D000206800F079FC2068816941F40061816130
:1019E0002068816921F480618161206881692A69A8
:1019F00041EA0221816124E0206800F091FC206826
:101A0000C16941F00801C1612068C16921F0040188
:101A1000C1612068C1692A69114311E0206800F0A2
:101A2000ABFC2068C16941F40061C1612068C169F3
:101A300021F48061C1612068C1692A6941EA0221FB
:101A4000C16184F83D60002084F83C0070BD10B591
:101A5000040003D094F83D0010B107E0012010BD50
:101A6000002084F83C00204600F00CF8022084F8A6
:101A70003D00211D206800F0ABFB012084F83D00F3
:101A8000002010BD7047704710B504460068012261
:101A900000F0D4FB07492068884203D1416C41F42F
:101AA000004141642068016841F0010101600020AB
:101AB00010BD0000002C01402DE9F0410068B0F19C
:101AC000804F65D1334C0025A088401C80B2A08097
:101AD000E188491CE18001212170092849D9A580AC
:101AE00020892581FEF7EAFC2B4E00223346FEF7C3
:101AF00004FC2A4F00223B46FEF7FFFBDFF8A080E4
:101B000000224346FEF76BFCFEF7E9FC6062608949
:101B100020626581FEF7D2FC00223346FEF7EDFB22
:101B200000223B46FEF7E9FB00224346FEF757FC46
:101B3000FEF7D5FC1B4EA06200224FF40071304628
:101B4000FFF702FA012211023046FFF7FDF90122E8
:101B500080213046FFF7F8F9002220213046FFF7B8
:101B6000F3F9114914200A68D063096808642078E1
:101B700050B1E088092804D90CA0616A00F0C6FDC4
:101B8000E5802078002803D1BDE8F04101F036BBA4
:101B9000BDE8F0810000002000408F4000004E4072
:101BA0000000C240000C014098000020252E326643
:101BB0000D200A007047704770B50268044610682F
:101BC000D168536910F00F0F50D003F0010501F4F4
:101BD000907635435DD0C20705D0CA0503D5E26BC8
:101BE00042F00102E263420705D5DA0703D0E26B57
:101BF00042F00202E263820705D5DA0703D0E26B06
:101C000042F00402E263020705D5DA0703D0E26B73
:101C100042F00802E263E26B002A33D0800604D56A
:101C2000880602D5204600F002FC20684069E16B7E
:101C3000C0F38010090700D428B3204600F0E9FB68
:101C40002068416949061AD5416921F04001416186
:101C5000606BA0B11B494163606BFFF713F800286C
:101C600010D0606B416BBDE870400847830610D50B
:101C70008B060ED52046BDE8704000F0D8BB20464C
:101C8000FFF799FF70BD2046FFF795FF0020E06346
:101C900070BD030606D50B0604D52046BDE870408E
:101CA00000F0C8BC4006F3D54806F1D5D1682046FF
:101CB00021F04001D160202184F8391000F031F981
:101CC00070BD00000324000870B5040004D094F82F
:101CD0003900002510B106E0012070BD84F83850AD
:101CE000204600F023F8242084F839002068C168D9
:101CF00021F40051C160204600F0E4FB2068016936
:101D000021F4904101612068416921F02A0141617B
:101D10002068C16841F40051C160E563202084F867
:101D2000390084F83A00002070BD000030B585B05D
:101D30000024009401940294039400681849884296
:101D40002CD11848816941F480418161816901F495
:101D500080410491816941F0040181618069124DE3
:101D600000F0040004904FF40070009002200190F5
:101D70000320039069462846FFF708F82815CDE9A7
:101D80000004694628460294FFF700F8002201216A
:101D90002520FFF749F92520FFF73AF905B030BDB6
:101DA00000380140001002400008014090F83A302D
:101DB000202B22D1F9B1F2B190F83830012B1CD090
:101DC00081628285C2850021C163222280F83A2087
:101DD00080F838100168CA6842F48072CA600168ED
:101DE0004A6942F001024A610068C16841F020017D
:101DF000C16000207047012070470220704700003A
:101E000000681649884227D1154988781D2821D2B3
:101E10004878002820D113488A78825C232A08D089
:101E20008A78521C8A708978012201444038FFF771
:101E3000BDBFC27830212C2A06D102782D2A03D0CA
:101E40000278312A00D0017002792C2A00D1017069
:101E500001F066B90020887070470000003801402A
:101E600000000020180100202DE9F843044690F8F6
:101E700039001F4616460D46202850D1A5B19EB107
:101E800094F8380001284AD0012084F838004FF037
:101E90000008C4F83C80212084F83900FFF75AF884
:101EA000A6848146E68426E00120BDE8F883E08C24
:101EB000401EE084A0684B46B0F5805F4FF0000202
:101EC0004FF080012046009703D000F0E4FBE8B912
:101ED0000DE000F0E0FBC8B928882168C0F30800D5
:101EE0004860206908B16D1C05E0AD1C03E0216865
:101EF00015F8010B4860E08C0028D8D14B46002231
:101F000040212046009700F0C6FB08B10320CCE733
:101F1000202084F8390084F838800020C5E70220AA
:101F2000C3E77047FEE700002DE9F04385B00024C9
:101F300037480094019402940394816941F0200190
:101F40008161816901F020010491816941F00401FE
:101F50008161816901F004010491816941F0080106
:101F600081618069DFF8AC9000F008004FF4687779
:101F70000490002239464846FEF7E6FF0420009010
:101F800025480125CDE90105DFF8908069464046E6
:101F9000FEF7FCFE224E4FF4C050CDE90006694624
:101FA00002944046FEF7F2FE5020CDE90006694655
:101FB00002944846FEF7EAFE0220CDE90240CDE950
:101FC000007569464846FEF7E1FE002211460820EA
:101FD000FFF72AF80820FFF71BF8002211460A2015
:101FE000FFF722F80A20FFF713F800221146172006
:101FF000FFF71AF81720FFF70BF8002211462820E8
:10200000FFF712F82820FFF703F805B0BDE8F083CA
:1020100000100240000C01400000211000080140A7
:102020000000311010B586B00024114800940194CE
:102030000294039404944FF080410594016040F6AB
:102040005F11C0E901141321C0E903148461FFF793
:10205000E9FA4FF48050009069460548FFF73AFBD3
:10206000049404A902480594FFF7B4FA06B010BD21
:102070005800002010B58EB00024079408940994ED
:102080000A940B941C2168460C94FEF762F81948D8
:10209000174901604E21C0E901146321C0E903140E
:1020A0008461FFF7BFFA4FF48050079007A91148E9
:1020B000FFF710FB0F48FFF7CAFC0B940BA90D4864
:1020C0000C94FFF787FA6020CDE9000402940822FF
:1020D000694608480494FFF752FC0C2269460548FB
:1020E000FFF74DFC0348FFF723FC0EB010BD0000C6
:1020F0000004004098000020FEE770470907090E21
:10210000002806DA00F00F0000F1E02080F8141D2E
:10211000704700F1E02080F8001470477047704766
:10212000FEF71EBF30B58FB028216846FEF711F8C4
:1021300014210AA8FEF70DF801210804CDE90010CA
:102140000024029402250491CDE907500001099072
:102150006846FFF7A7F80F20CDE90A056802CDE928
:102160000C4001210AA80E94FEF790FF0FB030BD7D
:102170000D48016841F00101016041680B4A1140BE
:10218000416001680A4A11400160016821F4802120
:102190000160416821F4FE0141604FF41F0181603C
:1021A0000449C00308607047001002400000FFF8B7
:1021B000FFFFF6FE08ED00E00148FFF705BB000059
:1021C000580000200148FFF7FFBA000098000020E7
:1021D000F0B50268164B174C174D4FF080479842E8
:1021E00005D0B84203D0A04201D0A84203D122F0CA
:1021F00070064A683243984205D0B84203D0A042E4
:1022000001D0A84203D122F44074CA68224322F0CC
:1022100080044A69224302608A68C2620A68826254
:10222000984201D10969016301214161F0BD0000BB
:10223000002C0140000400400008004010B50123BC
:10224000046A8B409C430462036A8A40134303621E
:1022500010BD10B5846842EA032224F47F440A4387
:102260002243826010BD826822F070020A4342F06D
:10227000070181607047000030B5026A22F0010258
:102280000262026A4368846924F073050C682C4377
:1022900022F002058A682A430A4DA8420BD122F097
:1022A0000805CA6823F440732A434D6922F00402EA
:1022B0001D438B692B43436084614968416302621B
:1022C00030BD0000002C014030B5026A22F010023F
:1022D0000262026A436884690D6824F4E64444EAB1
:1022E00005248D6822F0200242EA05120B4DA84217
:1022F0000ED1CD6822F0800242EA05124D6923F426
:10230000406343EA85038D6922F0400243EA850376
:102310004360846149688163026230BD002C0140E2
:1023200030B5026A22F480720262036A4268C469AC
:1023300023F4007324F073050C682C438D6843EA82
:1023400005230C4DA8420ED1CD6823F4006343EA67
:1023500005234D6922F4405242EA05128D6923F4A7
:10236000806342EA05124260C4614968C163036246
:1023700030BD0000002C014030B5026A22F48052CA
:102380000262046A4268C3690D6823F4E64343EAC3
:1023900005238D6824F4005444EA0534064DA84210
:1023A00004D14D6922F4804242EA85124260C36141
:1023B00049680164046230BD002C014010B5036A15
:1023C000046A24F001040462846924F0F00444EAFD
:1023D000021423F00A020A438461026210BD10B5A0
:1023E000036A23F0100303628369046A23F47043D1
:1023F00043EA023224F0A00343EA01118261016240
:1024000010BD10B5406A0021C185C184FFF7D3FB20
:1024100010BD0168CA6822F49072CA6001684A69F6
:1024200022F001024A61202180F83A10704710B56D
:1024300090F83A10222901D0022010BD8168B1F530
:10244000805F11D00169002901681FD0496801F03F
:102450007F03816A4A1C82620B70C18D491E090488
:10246000090CC18518D02BE00269816A002A026834
:10247000526805D0D2B20A80816A491C8162ECE7B9
:10248000C2F308020A80816A891CF7E74A68816AF8
:102490004B1C83620A70E0E70168CA6822F02002E0
:1024A000CA600168CA6822F48072CA6001684A6919
:1024B00022F001024A61202180F83A10FFF7A0FCC7
:1024C000002010BD2DE9F041044600680169E26872
:1024D00021F44051114301612169A06808436169F9
:1024E00008432168CA6841F20C639A430243CA60F8
:1024F00020684169A26921F44071114341614C494E
:1025000020686425322688423CD1FEF785FE00EB28
:10251000C00101EB001061688900B0FBF1F7FEF724
:102520007BFE00EBC00101EB00106168B046890042
:10253000B0FBF1F0B0FBF5F06FF01801484307EB8A
:10254000800106EB0110B0FBF5F000F0F006FEF79D
:1025500063FE00EBC00101EB001061688900B0FB75
:10256000F1F0B0FBF5F006EB0016FEF755FE00EBC0
:10257000C00101EB001061688900B0FBF1F7FEF7C4
:102580004BFE3BE0FEF738FE00EBC00101EB001014
:1025900061688900B0FBF1F7FEF72EFE00EBC00189
:1025A00001EB00106168B0468900B0FBF1F0B0FBB0
:1025B000F5F06FF01801484307EB800106EB0110BE
:1025C000B0FBF5F000F0F006FEF716FE00EBC001E0
:1025D00001EB001061688900B0FBF1F0B0FBF5F091
:1025E00006EB0016FEF708FE00EBC00101EB001041
:1025F00061688900B0FBF1F7FEF7FEFD00EBC0015A
:1026000001EB001061688900B0FBF1F0B0FBF5F060
:102610006FF01801484307EB800108EB0110B0FB95
:10262000F5F0216800F00F0030448860BDE8F081CB
:102630000038014090F83910212901D0022070475C
:102640008168B1F5805F016A0BD04A1C02620268A2
:1026500009785160C18C491E0904090CC1840ED04F
:1026600017E009880268C1F3080151600169002977
:10267000016A02D0491C0162ECE7891CFBE7016892
:10268000CA6822F08002CA600068C16841F0400157
:10269000C160002070472DE9F041984617460E466C
:1026A0000446069D1DE0681C1BD02DB1FEF752FCB0
:1026B000A0EB0800A84214D92068C16821F4D071A9
:1026C000C1602068416921F001014161202084F846
:1026D000390084F83A00002084F838000320BDE86F
:1026E000F0812068006836EA000004D00020B8427B
:1026F000D9D00020F3E70120F9E700000148FFF7F7
:102700005BBA0000D8000020FEE700000FB4054BC4
:1027100010B503A9044A029800F0EEF810BC5DF869
:1027200014FB0000513000085000002001480068F0
:10273000704700005400002002E008C8121F08C1C2
:10274000002AFAD170477047002001E001C1121F32
:10275000002AFBD170470000014908607047000063
:10276000540000202DE9FF5F82B00021DDE9043034
:10277000020DDDF840B0034318D044F61050A2F229
:10278000FF3242431514119801281FD0A5EB0B000E
:10279000401C5FEA000A4FF000064E4FDFF8389108
:1027A000B046504615D5CAF1000413E01198012433
:1027B0004AA3012801D16FEA0B010298119AC0E9DE
:1027C0000031C0E9024206B0BDE8F09FCBF1000045
:1027D000DFE704460021404A491842EB0450CDE9A6
:1027E000001012E0E00707D032463B46404649461B
:1027F000FDF783FD8046894632463B461046194622
:10280000FDF77BFD06460F466410002CEAD1DDE99A
:102810000401DDE90023BAF1000F06DAFDF76DFDD2
:1028200042464B46FDF769FD05E0FDF7D8FD4246FF
:102830004B46FDF7D4FD04460E460022284BFDF71B
:102840006DFE03D84FF0FF30014607E00022254B14
:1028500020463146FDF7AAFCFDF7DEFF102409E013
:10286000002C0ADB0A220023FDF7A2FE039B303274
:102870001A55641E50EA0102F2D1641C039AC4F195
:1028800011031444119A012A03D0012208430DD1E7
:102890000AE0084304D000204FF0110B119072E7BA
:1028A000A3EB0B056D1E0DE05B4504DD4FF0000250
:1028B00005F1010504E003DA4FF00002A5F101057E
:1028C000002AECD002981199C0E90231C0E9004514
:1028D00079E70000000014400000F03F30000000E5
:1028E0000000F0430000E03F30380A2801D2012008
:1028F00070470020704700002DE9FF4F95B09B46C0
:102900008946064600250FE2252877D10024274670
:10291000F84A0121059400E0044316F8013F203BEA
:1029200001FA03F01042F7D130782A2811D06FF065
:102930002F033078A0F13002092A16D8059A44F006
:10294000020402EB820203EB42021044761C059063
:10295000EFE759F8042B0592002A03DA504244F4B9
:102960000054059044F00204761C30782E2816D1CD
:1029700016F8010F44F004042A280DD06FF02F023E
:102980003078A0F13003092B09D807EB870302EB5D
:102990004303C718761CF3E759F8047B761C30789C
:1029A0006C280FD006DC4C2817D068280DD06A2878
:1029B00014D104E0742810D07A280FD10DE044F42B
:1029C00000140AE044F4801401E044F440147278E6
:1029D000824202D104F58014761C761C3078662879
:1029E0000BD013DC582877D009DC002875D0452897
:1029F000F6D04628F4D047281AD19DE118E0632884
:102A000035D0642879D0652812D195E1702873D02B
:102A100008DC6728F1D069286FD06E280DD06F28A8
:102A200006D1B5E073282CD0752875D0782874D0DD
:102A30005A46179990476D1C75E1C4F3025002285D
:102A400009D003280DD0D9F8001004280DD00D604E
:102A500009F1040967E1D9F80010EA17C1E9005249
:102A6000F6E7D9F800100D80F2E70D70F0E719F8DD
:102A7000041B8DF8001000208DF80100EA460120AB
:102A800003E059F804AB4FF0FF3061074FF000014D
:102A900002D40DE008F101018846B9420FDA804501
:102AA000F8DB1AF808100029F4D108E008F1010158
:102AB00088468142FADB1AF808100029F6D10598F9
:102AC0005B46A0EB080721463846179A00F094FAB7
:102AD000284400EB080507E04DE029E10DE01AF875
:102AE000010B5A4617999047B8F10108F7D25B4697
:102AF00021463846179A13E142E00A220092C4F3B5
:102B000002524FF0000A022A08D059F804CB032AD7
:102B10004FEAEC710AD00DE029E02AE009F1070143
:102B200021F00702F2E802C1914609E00FFA8CFC9D
:102B30004FEAEC71042A03D14FFA8CFC4FEAEC7196
:102B4000002907DA0A460021DCF1000C61EB0201E2
:102B50002D2202E0220504D52B228DF8042001222B
:102B600003E0E20701D02022F7E7904659E00A216E
:102B700002E010220DE010214FF0000A00910BE05E
:102B800010224FF0000A44F004040827009203E0EA
:102B900008224FF0000A0092C4F30252022A05D024
:102BA00059F804CB0021032A08D009E009F10701F4
:102BB00021F00702F2E802C1914605E01FFA8CFC01
:102BC000042A01D10CF0FF0C4FF00008220728D591
:102BD000702806D0009B83F0100353EA0A0305D047
:102BE0000EE040228DF80420012208E05CEA010298
:102BF00006D030228DF804208DF805000222904680
:102C0000009B83F0080353EA0A030AD15CEA01023D
:102C100001D1620705D530228DF804204FF001085C
:102C20007F1E582804D034A003900EA802900DE017
:102C300036A0F9E753466046009AFDF7B9FC844692
:102C40000398825C0298401E029002705CEA0100C8
:102C5000F0D1029806A9081A00F1200A600702D5EF
:102C600024F4803400E00127574502DDA7EB0A0079
:102C700000E0002000EB0A01009005984144401A52
:102C80000590E00306D45B462146179A059800F0AC
:102C9000B3F90544002706E001A85A46C05D17991C
:102CA00090476D1C7F1C4745F6DBE0030CD55B4667
:102CB0002146179A059800F09FF9054404E030205A
:102CC0005A46179990476D1C0099481E009000299C
:102CD000F5DC08E0029802995A460078491C0291F6
:102CE000179990476D1CBAF10001AAF1010AF1DCB5
:102CF00065E10000092801003031323334353637C0
:102D00003839616263646566000000003031323337
:102D100034353637383941424344454600000000D7
:102D200000F058F90544761C307800287FF4ECADAB
:102D300019B02846BDE8F08F620700D4062709F1D4
:102D4000070222F0070CFCE80223E14603F00048EA
:102D50005FEA080C02D00FF2702C0DE05FEA045C11
:102D600002D50FF2682C07E05FEAC47C02D00FF2B4
:102D7000602C01E0AFF2700C4FF0FF3823F00043FD
:102D8000CDF850C065280CD006DC452809D046286F
:102D90001DD047283DD13DE0662818D067287ED158
:102DA00038E00021112F01DB112000E0781CCDE973
:102DB000000106A90EA8FFF7D5FCDDE90F010E9A68
:102DC00003910021009207F1010A04914DE04FF0B8
:102DD00000400097CDE9011006A90EA8FFF7C2FC3C
:102DE000DDE90F0203920E9B11990022DDF80CA081
:102DF0000093049211B9791C00EB010AB7EB0A00A9
:102E000004D4C0F1FF3007F1010A0490AAEB0700D7
:102E1000019044E0012F00DA01270021112F01DD8C
:102E2000112000E03846CDE9000106A90EA8FFF701
:102E300099FCDDE90F010E9A0391002104910092A3
:102E4000BA4621070CD40399514500DA8A46BAF1F3
:102E5000010F05DD009AAAF10101515C302908D06B
:102E6000B84202DA10F1040F06DA0121CDE90110AF
:102E700015E0AAF10101E9E7002805DC0499014405
:102E80000491AAEB000102E0411C514500DD8A4695
:102E90000499401A401C01904FF000400290200716
:102EA00004D40198504501DBCDF8048000208DF852
:102EB0004F0002980DF14F07B0F1004F25D02B20A5
:102EC0000E9002984FF0020800280CDA404202905F
:102ED0002D200E9007E00A210298FDF753FB3031B8
:102EE000029007F8011DB8F10001A8F10108F2DC19
:102EF00002980028EFD1791E0E980870307800F003
:102F0000200040F0450007F8020D12A8C01B00F198
:102F100007081498007800B1012000EB0A0101981D
:102F200001EBE07105984144401A401E0590E00312
:102F300006D45B462146179A059800F05DF80544D3
:102F40001498007818B15A46179990476D1CE00301
:102F500024D55B462146179A059800F04DF80544A4
:102F60001CE00498002807DBDDE90301884203DD4B
:102F70000098405C179901E0179930205A46904715
:102F8000049805F10105401C04900198401E019031
:102F900004D12E205A46179990476D1CBAF10001B2
:102FA000AAF1010ADDDC05E017F8010B5A46179972
:102FB00090476D1CB8F10001A8F10108F4DC5B46F4
:102FC0002146179A0598ABE62D0000002B00000063
:102FD000200000002DE9F041044600251E4617465A
:102FE000880404D405E039462020B0476D1C641ED7
:102FF000F9D52846BDE8F0812DE9F04104460025C9
:103000001E469046C80301D5302700E020278804DB
:1030100004D505E041463846B0476D1C641EF9D51D
:103020002846BDE8F08130B583B00446FFF77EFB4B
:1030300005460020CDE90000024621466846FDF71E
:1030400024FB2846FFF788FBDDE9000103B030BD13
:1030500013B56423012269460248FEF705FF009874
:103060001CBD0000D8000020FDF782FFFFF75AF8D2
:10307000FEF75AFFFEF7D6FFFEF7FCFF154814498E
:103080000C2201604FF4E131416000218160C16098
:10309000C0E904128161C161FEF716FE0D480821E6
:1030A0004038FEF7F1FC0B480C214038FEF7ECFCF1
:1030B00008488038FEF702FB074906488978403007
:1030C000014401224038FEF771FE00F097F8FEE758
:1030D00000380140D80000200000002010B5064C48
:1030E000012251022046FDF72FFF0022A1152046A4
:1030F000BDE81040FDF728BF000C014010B5074C9B
:1031000000224FF400712046FDF71EFF20460122E9
:10311000BDE810401102FDF717BF0000000C014090
:103120002DE9F047314CDFF8C0904FF00008A2784D
:1031300009F802802EA14846FDF716F8060043D094
:1031400030783025DFF8ACA02D2805D070782D28F8
:1031500002D0FFF7D3FF06E0357070782D2800D13C
:103160007570FFF7BBFF3046FFF75DFF07460E4661
:1031700000225346FDF7D2F902D200201E4901E099
:1031800038463146FDF7E2F9606319A10020FCF7EB
:10319000EBFF060018D030782D280ED000F046F84E
:1031A0003046FFF740FF06460D4600225346FDF726
:1031B000B5F916D20020104903E0357000F026F86A
:1031C000EEE7FDF7C3F9A06384F8028084F801807C
:1031D000A17805484944BDE8F04701224038FEF790
:1031E000E5BD30462946ECE718010020000000202C
:1031F0002C0000000000694000805140024800217E
:103200000163C162704700000000002010B5064C49
:10321000002280212046FDF797FE20460122BDE8CE
:1032200010402021FDF790BE000C014010B5064C67
:10323000012280212046FDF787FE20460022BDE8BE
:1032400010402021FDF780BE000C0140000000006E
:103250000000000001020304060708090000000046
:1032600001020304DDDDDDDDDCBBBBDDDDDDDDDD3D
:10327000DDDDDDDD988888888888888877777777AE
:10328000778888888555555666666666666666667A
:103290006668888883333332222222222222222225
:1032A0002228888DC4320008000000205800000049
:1032B000382700081C33000858000020E0040000F4
:1032C0004827000800000000000000000000000087
:1032D00000000000000000000000000000000000EE
:1032E00000000000000000000000000000000000DE
:1032F00000000000000000000000000000000000CE
:1033000001000000100000000000000000A24A04BC
:0C331000000000000000000000000000B1
:04000005080000ED02
:00000001FF
